:1001E800454E5445522050494E204E554D42455299
:1001F8000050494E20434F525245435400444F4FFC
:1002080052204F50454E45440057524F4E472050BC
:03021800494E004C
:0802BE00060D31323334350026
:0F019A007F0F1202A27F381202A27F011202A26F
:1001A900E4F513F5147F801202A27BFF7A0179E846
:1001B90012021B12027E7FC01202A2740D2514F8CE
:1001C900E6601712000374082514F8A60712027EC8
:0D01D9000514E51470E5051380E1120128FE
:0201E60080C1D6
:090279007F2A1202B07FE87E0327
:10028200E4FDFCC3ED9FEC9E5015E4FBFA0BBB00B2
:0F029200010AEB640A4A70F50DBD00010C80E40F
:0102A100223A
:0E02A2008F90C2B5C2B6D2B712027EC2B7228A
:0E02B0008F90D2B5C2B6D2B712027EC2B7226C
:06021B008B158A168917FD
:10022100E4F518F519AB15AA16A9178519828518D1
:100231008312024CFF600D1202B00519E51970E539
:0B024100051880E17F107E270202827A
:10000300E4FFFEEF4E600302009BC2A0D2A1D2A286
:10001300D2A320B0061202797F312220B106120248
:10002300797F322220B2061202797F3322D2A0C214
:10003300A1D2A2D2A320B0061202797F342220B12A
:10004300061202797F352220B2061202797F362208
:10005300D2A0D2A1C2A2D2A320B0061202797F37C6
:100063002220B1061202797F382220B206120279C9
:100073007F3922D2A0D2A1D2A2C2A320B0061202FB
:10008300797F2A2220B1061202797F302230B2030F
:080093000200061202797F232E
:01009B002242
:10012800E50D65087050E50E6509704AE50F650A2A
:100138007044E510650B703EE511650C70381202CD
:100148007E7F011202A27F811202A27BFF7A0179CF
:10015800F912021B12027ED2B3C2B47FC11202A2EC
:100168007BFF7A02790512021B7F107E271202821A
:10017800D2B3C2B480167F011202A27F801202A2FB
:100188007BFF7A02791112021B12027E7F01120292
:02019800A222A1
:0300000002009C5F
:0C009C00787FE4F6D8FD7581190200E3BE
:10024C00BB010CE58229F582E5833AF583E0225067
:10025C0006E92582F8E622BBFE06E92582F8E222B1
:0D026C00E58229F582E5833AF583E49322CB
:1000A80002019AE493A3F8E493A34003F68001F2D3
:1000B80008DFF48029E493A3F85407240CC8C33359
:1000C800C4540F4420C8834004F456800146F6DF28
:1000D800E4800B01020408102040809002BEE47EF8
:1000E800019360BCA3FF543F30E509541FFEE4931D
:1000F800A360010ECF54C025E060A840B8E493A3E4
:10010800FAE493A3F8E493A3C8C582C8CAC583CA0E
:10011800F0A3C8C582C8CAC583CADFE9DEE780BEC6
:0102C6000037
:00000001FF
